{
	"_format": "hh-sol-artifact-1",
	"contractName": "MarketPlace",
	"sourceName": "contracts/MarketPlace.sol",
	"abi": [
		{
			"inputs": [],
			"name": "ReentrancyGuardReentrantCall",
			"type": "error"
		},
		{
			"anonymous": false,
			"inputs": [
				{
					"indexed": false,
					"internalType": "uint256",
					"name": "itemId",
					"type": "uint256"
				},
				{
					"indexed": true,
					"internalType": "address",
					"name": "nft",
					"type": "address"
				},
				{
					"indexed": false,
					"internalType": "uint256",
					"name": "tokenId",
					"type": "uint256"
				},
				{
					"indexed": false,
					"internalType": "uint256",
					"name": "price",
					"type": "uint256"
				},
				{
					"indexed": true,
					"internalType": "address",
					"name": "seller",
					"type": "address"
				},
				{
					"indexed": true,
					"internalType": "address",
					"name": "buyer",
					"type": "address"
				}
			],
			"name": "NFTBought",
			"type": "event"
		},
		{
			"anonymous": false,
			"inputs": [
				{
					"indexed": false,
					"internalType": "uint256",
					"name": "itemId",
					"type": "uint256"
				},
				{
					"indexed": true,
					"internalType": "address",
					"name": "nft",
					"type": "address"
				},
				{
					"indexed": false,
					"internalType": "uint256",
					"name": "tokenId",
					"type": "uint256"
				},
				{
					"indexed": false,
					"internalType": "uint256",
					"name": "price",
					"type": "uint256"
				},
				{
					"indexed": true,
					"internalType": "address",
					"name": "seller",
					"type": "address"
				}
			],
			"name": "NFTListed",
			"type": "event"
		},
		{
			"inputs": [],
			"name": "itemCount",
			"outputs": [
				{
					"internalType": "uint256",
					"name": "",
					"type": "uint256"
				}
			],
			"stateMutability": "view",
			"type": "function"
		},
		{
			"inputs": [
				{
					"internalType": "contract IERC721",
					"name": "_nft",
					"type": "address"
				},
				{
					"internalType": "uint256",
					"name": "_tokenId",
					"type": "uint256"
				},
				{
					"internalType": "uint256",
					"name": "_price",
					"type": "uint256"
				}
			],
			"name": "makeNFTItem",
			"outputs": [],
			"stateMutability": "nonpayable",
			"type": "function"
		},
		{
			"inputs": [
				{
					"internalType": "uint256",
					"name": "_itemId",
					"type": "uint256"
				}
			],
			"name": "purchaseNFTItem",
			"outputs": [],
			"stateMutability": "payable",
			"type": "function"
		},
		{
			"inputs": [
				{
					"internalType": "uint256",
					"name": "",
					"type": "uint256"
				}
			],
			"name": "uintToItem",
			"outputs": [
				{
					"internalType": "uint256",
					"name": "itemId",
					"type": "uint256"
				},
				{
					"internalType": "contract IERC721",
					"name": "nft",
					"type": "address"
				},
				{
					"internalType": "uint256",
					"name": "tokenId",
					"type": "uint256"
				},
				{
					"internalType": "uint256",
					"name": "price",
					"type": "uint256"
				},
				{
					"internalType": "address payable",
					"name": "seller",
					"type": "address"
				},
				{
					"internalType": "bool",
					"name": "sold",
					"type": "bool"
				},
				{
					"internalType": "address payable",
					"name": "owner",
					"type": "address"
				}
			],
			"stateMutability": "view",
			"type": "function"
		}
	],
	"bytecode": "0x608060405234801561001057600080fd5b506001600081905550610daa806100286000396000f3fe60806040526004361061003f5760003560e01c8063089e8065146100445780636bfb0d0114610087578063ecb92c41146100b2578063ef90a91f146100db575b600080fd5b34801561005057600080fd5b5061006b60048036038101906100669190610875565b6100f7565b60405161007e979695949392919061096c565b60405180910390f35b34801561009357600080fd5b5061009c6101a6565b6040516100a991906109db565b60405180910390f35b3480156100be57600080fd5b506100d960048036038101906100d49190610a46565b6101ac565b005b6100f560048036038101906100f09190610875565b61049b565b005b60026020528060005260406000206000915090508060000154908060010160009054906101000a900473ffffffffffffffffffffffffffffffffffffffff16908060020154908060030154908060040160009054906101000a900473ffffffffffffffffffffffffffffffffffffffff16908060040160149054906101000a900460ff16908060050160009054906101000a900473ffffffffffffffffffffffffffffffffffffffff16905087565b60015481565b6101b46107ea565b600081116101f7576040517f08c379a00000000000000000000000000000000000000000000000000000000081526004016101ee90610af6565b60405180910390fd5b6001600081548092919061020a90610b45565b91905055508273ffffffffffffffffffffffffffffffffffffffff166323b872dd3330846040518463ffffffff1660e01b815260040161024c93929190610b9c565b600060405180830381600087803b15801561026657600080fd5b505af115801561027a573d6000803e3d6000fd5b505050506040518060e0016040528060015481526020018473ffffffffffffffffffffffffffffffffffffffff1681526020018381526020018281526020013373ffffffffffffffffffffffffffffffffffffffff1681526020016000151581526020013373ffffffffffffffffffffffffffffffffffffffff168152506002600060015481526020019081526020016000206000820151816000015560208201518160010160006101000a81548173ffffffffffffffffffffffffffffffffffffffff021916908373ffffffffffffffffffffffffffffffffffffffff160217905550604082015181600201556060820151816003015560808201518160040160006101000a81548173ffffffffffffffffffffffffffffffffffffffff021916908373ffffffffffffffffffffffffffffffffffffffff16021790555060a08201518160040160146101000a81548160ff02191690831515021790555060c08201518160050160006101000a81548173ffffffffffffffffffffffffffffffffffffffff021916908373ffffffffffffffffffffffffffffffffffffffff1602179055509050503373ffffffffffffffffffffffffffffffffffffffff168373ffffffffffffffffffffffffffffffffffffffff167fe33aafc81513be125d0ef3012a3189731e3a7a4c64de233e9adf88e14c67c401600154858560405161048693929190610bd3565b60405180910390a3610496610830565b505050565b6104a36107ea565b60006002600083815260200190815260200160002090506000821180156104cc57506001548211155b61050b576040517f08c379a000000000000000000000000000000000000000000000000000000000815260040161050290610c56565b60405180910390fd5b8060030154341015610552576040517f08c379a000000000000000000000000000000000000000000000000000000000815260040161054990610ce8565b60405180910390fd5b8060040160149054906101000a900460ff16156105a4576040517f08c379a000000000000000000000000000000000000000000000000000000000815260040161059b90610d54565b60405180910390fd5b8060040160009054906101000a900473ffffffffffffffffffffffffffffffffffffffff1673ffffffffffffffffffffffffffffffffffffffff166108fc82600301549081150290604051600060405180830381858888f19350505050158015610612573d6000803e3d6000fd5b50338160050160006101000a81548173ffffffffffffffffffffffffffffffffffffffff021916908373ffffffffffffffffffffffffffffffffffffffff16021790555060018160040160146101000a81548160ff0219169083151502179055508060010160009054906101000a900473ffffffffffffffffffffffffffffffffffffffff1673ffffffffffffffffffffffffffffffffffffffff166323b872dd303384600201546040518463ffffffff1660e01b81526004016106d893929190610b9c565b600060405180830381600087803b1580156106f257600080fd5b505af1158015610706573d6000803e3d6000fd5b505050503373ffffffffffffffffffffffffffffffffffffffff168160040160009054906101000a900473ffffffffffffffffffffffffffffffffffffffff1673ffffffffffffffffffffffffffffffffffffffff168260010160009054906101000a900473ffffffffffffffffffffffffffffffffffffffff1673ffffffffffffffffffffffffffffffffffffffff167fb5626c75460d05384401fae66928546a4ff144b7ee6c9dc570c4f90521df56b98460000154856002015486600301546040516107d693929190610bd3565b60405180910390a4506107e7610830565b50565b600260005403610826576040517f3ee5aeb500000000000000000000000000000000000000000000000000000000815260040160405180910390fd5b6002600081905550565b6001600081905550565b600080fd5b6000819050919050565b6108528161083f565b811461085d57600080fd5b50565b60008135905061086f81610849565b92915050565b60006020828403121561088b5761088a61083a565b5b600061089984828501610860565b91505092915050565b6108ab8161083f565b82525050565b600073ffffffffffffffffffffffffffffffffffffffff82169050919050565b6000819050919050565b60006108f66108f16108ec846108b1565b6108d1565b6108b1565b9050919050565b6000610908826108db565b9050919050565b600061091a826108fd565b9050919050565b61092a8161090f565b82525050565b600061093b826108b1565b9050919050565b61094b81610930565b82525050565b60008115159050919050565b61096681610951565b82525050565b600060e082019050610981600083018a6108a2565b61098e6020830189610921565b61099b60408301886108a2565b6109a860608301876108a2565b6109b56080830186610942565b6109c260a083018561095d565b6109cf60c0830184610942565b98975050505050505050565b60006020820190506109f060008301846108a2565b92915050565b6000610a01826108b1565b9050919050565b6000610a13826109f6565b9050919050565b610a2381610a08565b8114610a2e57600080fd5b50565b600081359050610a4081610a1a565b92915050565b600080600060608486031215610a5f57610a5e61083a565b5b6000610a6d86828701610a31565b9350506020610a7e86828701610860565b9250506040610a8f86828701610860565b9150509250925092565b600082825260208201905092915050565b7f5072696365206d7573742062652067726561746572207468616e207a65726f00600082015250565b6000610ae0601f83610a99565b9150610aeb82610aaa565b602082019050919050565b60006020820190508181036000830152610b0f81610ad3565b9050919050565b7f4e487b7100000000000000000000000000000000000000000000000000000000600052601160045260246000fd5b6000610b508261083f565b91507fffffffffffffffffffffffffffffffffffffffffffffffffffffffffffffffff8203610b8257610b81610b16565b5b600182019050919050565b610b96816109f6565b82525050565b6000606082019050610bb16000830186610b8d565b610bbe6020830185610b8d565b610bcb60408301846108a2565b949350505050565b6000606082019050610be860008301866108a2565b610bf560208301856108a2565b610c0260408301846108a2565b949350505050565b7f4974656d20646f65736e74206578697374000000000000000000000000000000600082015250565b6000610c40601183610a99565b9150610c4b82610c0a565b602082019050919050565b60006020820190508181036000830152610c6f81610c33565b9050919050565b7f4554482073656e742069736e277420656e6f75676820746f20636f6d706c657460008201527f65207472616e73616374696f6e00000000000000000000000000000000000000602082015250565b6000610cd2602d83610a99565b9150610cdd82610c76565b604082019050919050565b60006020820190508181036000830152610d0181610cc5565b9050919050565b7f4974656d20616c726561647920736f6c64000000000000000000000000000000600082015250565b6000610d3e601183610a99565b9150610d4982610d08565b602082019050919050565b60006020820190508181036000830152610d6d81610d31565b905091905056fea26469706673582212203df2da4091e6ab3523b53eb1b913833d9ddb06ccd9327fb11b4bd4a1e8edc40f64736f6c63430008140033",
	"linkReferences": {},
	"deployedLinkReferences": {}
}